{
  "_format": "hh-sol-artifact-1",
  "contractName": "MedicalRecords",
  "sourceName": "contracts/MedicalRecord.sol",
  "abi": [
    {
      "anonymous": false,
      "inputs": [
        {
          "indexed": false,
          "internalType": "uint256",
          "name": "recordId",
          "type": "uint256"
        },
        {
          "indexed": false,
          "internalType": "uint256",
          "name": "timestamp",
          "type": "uint256"
        },
        {
          "indexed": false,
          "internalType": "string",
          "name": "name",
          "type": "string"
        },
        {
          "indexed": false,
          "internalType": "uint256",
          "name": "age",
          "type": "uint256"
        },
        {
          "indexed": false,
          "internalType": "string",
          "name": "gender",
          "type": "string"
        },
        {
          "indexed": false,
          "internalType": "string",
          "name": "homeAddress",
          "type": "string"
        },
        {
          "indexed": false,
          "internalType": "string",
          "name": "emailAddress",
          "type": "string"
        },
        {
          "indexed": false,
          "internalType": "string",
          "name": "phoneNumber",
          "type": "string"
        },
        {
          "indexed": false,
          "internalType": "string",
          "name": "bloodType",
          "type": "string"
        },
        {
          "indexed": false,
          "internalType": "string",
          "name": "allergies",
          "type": "string"
        },
        {
          "indexed": false,
          "internalType": "string",
          "name": "diagnosis",
          "type": "string"
        },
        {
          "indexed": false,
          "internalType": "string",
          "name": "treatment",
          "type": "string"
        }
      ],
      "name": "MedicalRecords__AddRecord",
      "type": "event"
    },
    {
      "anonymous": false,
      "inputs": [
        {
          "indexed": false,
          "internalType": "uint256",
          "name": "recordId",
          "type": "uint256"
        },
        {
          "indexed": false,
          "internalType": "uint256",
          "name": "timestamp",
          "type": "uint256"
        },
        {
          "indexed": false,
          "internalType": "string",
          "name": "name",
          "type": "string"
        },
        {
          "indexed": false,
          "internalType": "uint256",
          "name": "age",
          "type": "uint256"
        },
        {
          "indexed": false,
          "internalType": "string",
          "name": "gender",
          "type": "string"
        },
        {
          "indexed": false,
          "internalType": "string",
          "name": "homeAddress",
          "type": "string"
        },
        {
          "indexed": false,
          "internalType": "string",
          "name": "emailAddress",
          "type": "string"
        },
        {
          "indexed": false,
          "internalType": "string",
          "name": "phoneNumber",
          "type": "string"
        },
        {
          "indexed": false,
          "internalType": "string",
          "name": "bloodType",
          "type": "string"
        },
        {
          "indexed": false,
          "internalType": "string",
          "name": "allergies",
          "type": "string"
        },
        {
          "indexed": false,
          "internalType": "string",
          "name": "diagnosis",
          "type": "string"
        },
        {
          "indexed": false,
          "internalType": "string",
          "name": "treatment",
          "type": "string"
        }
      ],
      "name": "MedicalRecords__DeleteRecord",
      "type": "event"
    },
    {
      "inputs": [
        {
          "internalType": "string",
          "name": "_name",
          "type": "string"
        },
        {
          "internalType": "uint256",
          "name": "_age",
          "type": "uint256"
        },
        {
          "internalType": "string",
          "name": "_gender",
          "type": "string"
        },
        {
          "internalType": "string",
          "name": "_homeAddress",
          "type": "string"
        },
        {
          "internalType": "string",
          "name": "_emailAddress",
          "type": "string"
        },
        {
          "internalType": "string",
          "name": "_phoneNumber",
          "type": "string"
        },
        {
          "internalType": "string",
          "name": "_bloodType",
          "type": "string"
        },
        {
          "internalType": "string",
          "name": "_allergies",
          "type": "string"
        },
        {
          "internalType": "string",
          "name": "_diagnosis",
          "type": "string"
        },
        {
          "internalType": "string",
          "name": "_treatment",
          "type": "string"
        }
      ],
      "name": "addRecord",
      "outputs": [],
      "stateMutability": "nonpayable",
      "type": "function"
    },
    {
      "inputs": [
        {
          "internalType": "uint256",
          "name": "_recordId",
          "type": "uint256"
        }
      ],
      "name": "deleteRecord",
      "outputs": [],
      "stateMutability": "nonpayable",
      "type": "function"
    },
    {
      "inputs": [
        {
          "internalType": "uint256",
          "name": "_recordId",
          "type": "uint256"
        }
      ],
      "name": "getAge",
      "outputs": [
        {
          "internalType": "uint256",
          "name": "",
          "type": "uint256"
        }
      ],
      "stateMutability": "view",
      "type": "function"
    },
    {
      "inputs": [
        {
          "internalType": "uint256",
          "name": "_recordId",
          "type": "uint256"
        }
      ],
      "name": "getAllergies",
      "outputs": [
        {
          "internalType": "string",
          "name": "",
          "type": "string"
        }
      ],
      "stateMutability": "view",
      "type": "function"
    },
    {
      "inputs": [
        {
          "internalType": "uint256",
          "name": "_recordId",
          "type": "uint256"
        }
      ],
      "name": "getBloodType",
      "outputs": [
        {
          "internalType": "string",
          "name": "",
          "type": "string"
        }
      ],
      "stateMutability": "view",
      "type": "function"
    },
    {
      "inputs": [
        {
          "internalType": "uint256",
          "name": "_recordId",
          "type": "uint256"
        }
      ],
      "name": "getDeleted",
      "outputs": [
        {
          "internalType": "bool",
          "name": "",
          "type": "bool"
        }
      ],
      "stateMutability": "view",
      "type": "function"
    },
    {
      "inputs": [
        {
          "internalType": "uint256",
          "name": "_recordId",
          "type": "uint256"
        }
      ],
      "name": "getDiagnosis",
      "outputs": [
        {
          "internalType": "string",
          "name": "",
          "type": "string"
        }
      ],
      "stateMutability": "view",
      "type": "function"
    },
    {
      "inputs": [
        {
          "internalType": "uint256",
          "name": "_recordId",
          "type": "uint256"
        }
      ],
      "name": "getEmailAddress",
      "outputs": [
        {
          "internalType": "string",
          "name": "",
          "type": "string"
        }
      ],
      "stateMutability": "view",
      "type": "function"
    },
    {
      "inputs": [
        {
          "internalType": "uint256",
          "name": "_recordId",
          "type": "uint256"
        }
      ],
      "name": "getGender",
      "outputs": [
        {
          "internalType": "string",
          "name": "",
          "type": "string"
        }
      ],
      "stateMutability": "view",
      "type": "function"
    },
    {
      "inputs": [
        {
          "internalType": "uint256",
          "name": "_recordId",
          "type": "uint256"
        }
      ],
      "name": "getHomeAddress",
      "outputs": [
        {
          "internalType": "string",
          "name": "",
          "type": "string"
        }
      ],
      "stateMutability": "view",
      "type": "function"
    },
    {
      "inputs": [
        {
          "internalType": "uint256",
          "name": "_recordId",
          "type": "uint256"
        }
      ],
      "name": "getName",
      "outputs": [
        {
          "internalType": "string",
          "name": "",
          "type": "string"
        }
      ],
      "stateMutability": "view",
      "type": "function"
    },
    {
      "inputs": [
        {
          "internalType": "uint256",
          "name": "_recordId",
          "type": "uint256"
        }
      ],
      "name": "getPhoneNumber",
      "outputs": [
        {
          "internalType": "string",
          "name": "",
          "type": "string"
        }
      ],
      "stateMutability": "view",
      "type": "function"
    },
    {
      "inputs": [
        {
          "internalType": "uint256",
          "name": "_recordId",
          "type": "uint256"
        }
      ],
      "name": "getRecord",
      "outputs": [
        {
          "internalType": "uint256",
          "name": "",
          "type": "uint256"
        },
        {
          "internalType": "string",
          "name": "",
          "type": "string"
        },
        {
          "internalType": "uint256",
          "name": "",
          "type": "uint256"
        },
        {
          "internalType": "string",
          "name": "",
          "type": "string"
        },
        {
          "internalType": "string",
          "name": "",
          "type": "string"
        },
        {
          "internalType": "string",
          "name": "",
          "type": "string"
        },
        {
          "internalType": "string",
          "name": "",
          "type": "string"
        },
        {
          "internalType": "string",
          "name": "",
          "type": "string"
        },
        {
          "internalType": "string",
          "name": "",
          "type": "string"
        },
        {
          "internalType": "string",
          "name": "",
          "type": "string"
        },
        {
          "internalType": "string",
          "name": "",
          "type": "string"
        }
      ],
      "stateMutability": "view",
      "type": "function"
    },
    {
      "inputs": [],
      "name": "getRecordId",
      "outputs": [
        {
          "internalType": "uint256",
          "name": "",
          "type": "uint256"
        }
      ],
      "stateMutability": "view",
      "type": "function"
    },
    {
      "inputs": [
        {
          "internalType": "uint256",
          "name": "_recordId",
          "type": "uint256"
        }
      ],
      "name": "getTimeStamp",
      "outputs": [
        {
          "internalType": "uint256",
          "name": "",
          "type": "uint256"
        }
      ],
      "stateMutability": "view",
      "type": "function"
    },
    {
      "inputs": [
        {
          "internalType": "uint256",
          "name": "_recordId",
          "type": "uint256"
        }
      ],
      "name": "getTreatment",
      "outputs": [
        {
          "internalType": "string",
          "name": "",
          "type": "string"
        }
      ],
      "stateMutability": "view",
      "type": "function"
    },
    {
      "inputs": [
        {
          "internalType": "uint256",
          "name": "",
          "type": "uint256"
        }
      ],
      "name": "isDeleted",
      "outputs": [
        {
          "internalType": "bool",
          "name": "",
          "type": "bool"
        }
      ],
      "stateMutability": "view",
      "type": "function"
    },
    {
      "inputs": [],
      "name": "recordId",
      "outputs": [
        {
          "internalType": "uint256",
          "name": "",
          "type": "uint256"
        }
      ],
      "stateMutability": "view",
      "type": "function"
    }
  ],
  "bytecode": "0x608060405234801561001057600080fd5b50611ef0806100206000396000f3fe608060405234801561001057600080fd5b50600436106101165760003560e01c8063a7d874e6116100a2578063d4c22c4e11610071578063d4c22c4e1461035b578063e06d2eb51461038b578063e31e750c146103bb578063f26c5f5f146103eb578063f7dfe22b1461041b57610116565b8063a7d874e6146102af578063ab596946146102cb578063b1b5c730146102fb578063b810793e1461032b57610116565b80636b8ff574116100e95780636b8ff574146101d157806373c440db1461020157806394182c361461023157806397f6c84c1461026157806399055dda1461029157610116565b806303e9e6091461011b578063061f9811146101555780630e37008a146101715780636747f391146101a1575b600080fd5b6101356004803603810190610130919061134a565b610439565b60405161014c9b9a99989796959493929190611416565b60405180910390f35b61016f600480360381019061016a919061134a565b6109a2565b005b61018b6004803603810190610186919061134a565b610aba565b6040516101989190611500565b60405180910390f35b6101bb60048036038101906101b6919061134a565b610ada565b6040516101c89190611500565b60405180910390f35b6101eb60048036038101906101e6919061134a565b610afa565b6040516101f8919061151b565b60405180910390f35b61021b6004803603810190610216919061134a565b610ba2565b604051610228919061151b565b60405180910390f35b61024b6004803603810190610246919061134a565b610c4a565b6040516102589190611558565b60405180910390f35b61027b6004803603810190610276919061134a565b610c6a565b604051610288919061151b565b60405180910390f35b610299610d12565b6040516102a69190611500565b60405180910390f35b6102c960048036038101906102c491906116a8565b610d1b565b005b6102e560048036038101906102e0919061134a565b610ee0565b6040516102f29190611558565b60405180910390f35b6103156004803603810190610310919061134a565b610f0a565b604051610322919061151b565b60405180910390f35b6103456004803603810190610340919061134a565b610fb2565b604051610352919061151b565b60405180910390f35b6103756004803603810190610370919061134a565b61105a565b604051610382919061151b565b60405180910390f35b6103a560048036038101906103a0919061134a565b611102565b6040516103b2919061151b565b60405180910390f35b6103d560048036038101906103d0919061134a565b6111aa565b6040516103e2919061151b565b60405180910390f35b6104056004803603810190610400919061134a565b611252565b604051610412919061151b565b60405180910390f35b6104236112fa565b6040516104309190611500565b60405180910390f35b6000606060006060806060806060806060806000600160008e81526020019081526020016000209050806001015481600201826003015483600401846005018560060186600701876008018860090189600a018a600b0189805461049c906118b2565b80601f01602080910402602001604051908101604052809291908181526020018280546104c8906118b2565b80156105155780601f106104ea57610100808354040283529160200191610515565b820191906000526020600020905b8154815290600101906020018083116104f857829003601f168201915b50505050509950878054610528906118b2565b80601f0160208091040260200160405190810160405280929190818152602001828054610554906118b2565b80156105a15780601f10610576576101008083540402835291602001916105a1565b820191906000526020600020905b81548152906001019060200180831161058457829003601f168201915b505050505097508680546105b4906118b2565b80601f01602080910402602001604051908101604052809291908181526020018280546105e0906118b2565b801561062d5780601f106106025761010080835404028352916020019161062d565b820191906000526020600020905b81548152906001019060200180831161061057829003601f168201915b50505050509650858054610640906118b2565b80601f016020809104026020016040519081016040528092919081815260200182805461066c906118b2565b80156106b95780601f1061068e576101008083540402835291602001916106b9565b820191906000526020600020905b81548152906001019060200180831161069c57829003601f168201915b505050505095508480546106cc906118b2565b80601f01602080910402602001604051908101604052809291908181526020018280546106f8906118b2565b80156107455780601f1061071a57610100808354040283529160200191610745565b820191906000526020600020905b81548152906001019060200180831161072857829003601f168201915b50505050509450838054610758906118b2565b80601f0160208091040260200160405190810160405280929190818152602001828054610784906118b2565b80156107d15780601f106107a6576101008083540402835291602001916107d1565b820191906000526020600020905b8154815290600101906020018083116107b457829003601f168201915b505050505093508280546107e4906118b2565b80601f0160208091040260200160405190810160405280929190818152602001828054610810906118b2565b801561085d5780601f106108325761010080835404028352916020019161085d565b820191906000526020600020905b81548152906001019060200180831161084057829003601f168201915b50505050509250818054610870906118b2565b80601f016020809104026020016040519081016040528092919081815260200182805461089c906118b2565b80156108e95780601f106108be576101008083540402835291602001916108e9565b820191906000526020600020905b8154815290600101906020018083116108cc57829003601f168201915b505050505091508080546108fc906118b2565b80601f0160208091040260200160405190810160405280929190818152602001828054610928906118b2565b80156109755780601f1061094a57610100808354040283529160200191610975565b820191906000526020600020905b81548152906001019060200180831161095857829003601f168201915b505050505090509b509b509b509b509b509b509b509b509b509b509b505091939597999b90929496989a50565b6002600082815260200190815260200160002060009054906101000a900460ff1615610a03576040517f08c379a00000000000000000000000000000000000000000000000000000000081526004016109fa9061192f565b60405180910390fd5b60006001600083815260200190815260200160002090507f130ce086398be54bdc5569745c99f983ec8e09ed842f6a5c4d5078f1a8ca5eb381600001544283600201846003015485600401866005018760060188600701896008018a6009018b600a018c600b01604051610a829c9b9a999897969594939291906119e8565b60405180910390a160016002600084815260200190815260200160002060006101000a81548160ff0219169083151502179055505050565b600060016000838152602001908152602001600020600301549050919050565b600060016000838152602001908152602001600020600101549050919050565b6060600160008381526020019081526020016000206002018054610b1d906118b2565b80601f0160208091040260200160405190810160405280929190818152602001828054610b49906118b2565b8015610b965780601f10610b6b57610100808354040283529160200191610b96565b820191906000526020600020905b815481529060010190602001808311610b7957829003601f168201915b50505050509050919050565b606060016000838152602001908152602001600020600a018054610bc5906118b2565b80601f0160208091040260200160405190810160405280929190818152602001828054610bf1906118b2565b8015610c3e5780601f10610c1357610100808354040283529160200191610c3e565b820191906000526020600020905b815481529060010190602001808311610c2157829003601f168201915b50505050509050919050565b60026020528060005260406000206000915054906101000a900460ff1681565b6060600160008381526020019081526020016000206009018054610c8d906118b2565b80601f0160208091040260200160405190810160405280929190818152602001828054610cb9906118b2565b8015610d065780601f10610cdb57610100808354040283529160200191610d06565b820191906000526020600020905b815481529060010190602001808311610ce957829003601f168201915b50505050509050919050565b60008054905090565b600080815480929190610d2d90611b10565b919050555060405180610180016040528060005481526020014281526020018b81526020018a815260200189815260200188815260200187815260200186815260200185815260200184815260200183815260200182815250600160008054815260200190815260200160002060008201518160000155602082015181600101556040820151816002019081610dc39190611cef565b50606082015181600301556080820151816004019081610de39190611cef565b5060a0820151816005019081610df99190611cef565b5060c0820151816006019081610e0f9190611cef565b5060e0820151816007019081610e259190611cef565b50610100820151816008019081610e3c9190611cef565b50610120820151816009019081610e539190611cef565b5061014082015181600a019081610e6a9190611cef565b5061016082015181600b019081610e819190611cef565b509050507f9b2195f7c335ef5bed23b3074867a1eb97f5704b9cbe44d55c80e5e76f30e047600054428c8c8c8c8c8c8c8c8c8c604051610ecc9c9b9a99989796959493929190611dc1565b60405180910390a150505050505050505050565b60006002600083815260200190815260200160002060009054906101000a900460ff169050919050565b6060600160008381526020019081526020016000206007018054610f2d906118b2565b80601f0160208091040260200160405190810160405280929190818152602001828054610f59906118b2565b8015610fa65780601f10610f7b57610100808354040283529160200191610fa6565b820191906000526020600020905b815481529060010190602001808311610f8957829003601f168201915b50505050509050919050565b6060600160008381526020019081526020016000206008018054610fd5906118b2565b80601f0160208091040260200160405190810160405280929190818152602001828054611001906118b2565b801561104e5780601f106110235761010080835404028352916020019161104e565b820191906000526020600020905b81548152906001019060200180831161103157829003601f168201915b50505050509050919050565b606060016000838152602001908152602001600020600501805461107d906118b2565b80601f01602080910402602001604051908101604052809291908181526020018280546110a9906118b2565b80156110f65780601f106110cb576101008083540402835291602001916110f6565b820191906000526020600020905b8154815290600101906020018083116110d957829003601f168201915b50505050509050919050565b6060600160008381526020019081526020016000206004018054611125906118b2565b80601f0160208091040260200160405190810160405280929190818152602001828054611151906118b2565b801561119e5780601f106111735761010080835404028352916020019161119e565b820191906000526020600020905b81548152906001019060200180831161118157829003601f168201915b50505050509050919050565b60606001600083815260200190815260200160002060060180546111cd906118b2565b80601f01602080910402602001604051908101604052809291908181526020018280546111f9906118b2565b80156112465780601f1061121b57610100808354040283529160200191611246565b820191906000526020600020905b81548152906001019060200180831161122957829003601f168201915b50505050509050919050565b606060016000838152602001908152602001600020600b018054611275906118b2565b80601f01602080910402602001604051908101604052809291908181526020018280546112a1906118b2565b80156112ee5780601f106112c3576101008083540402835291602001916112ee565b820191906000526020600020905b8154815290600101906020018083116112d157829003601f168201915b50505050509050919050565b60005481565b6000604051905090565b600080fd5b600080fd5b6000819050919050565b61132781611314565b811461133257600080fd5b50565b6000813590506113448161131e565b92915050565b6000602082840312156113605761135f61130a565b5b600061136e84828501611335565b91505092915050565b61138081611314565b82525050565b600081519050919050565b600082825260208201905092915050565b60005b838110156113c05780820151818401526020810190506113a5565b60008484015250505050565b6000601f19601f8301169050919050565b60006113e882611386565b6113f28185611391565b93506114028185602086016113a2565b61140b816113cc565b840191505092915050565b60006101608201905061142c600083018e611377565b818103602083015261143e818d6113dd565b905061144d604083018c611377565b818103606083015261145f818b6113dd565b90508181036080830152611473818a6113dd565b905081810360a083015261148781896113dd565b905081810360c083015261149b81886113dd565b905081810360e08301526114af81876113dd565b90508181036101008301526114c481866113dd565b90508181036101208301526114d981856113dd565b90508181036101408301526114ee81846113dd565b90509c9b505050505050505050505050565b60006020820190506115156000830184611377565b92915050565b6000602082019050818103600083015261153581846113dd565b905092915050565b60008115159050919050565b6115528161153d565b82525050565b600060208201905061156d6000830184611549565b92915050565b600080fd5b600080fd5b7f4e487b7100000000000000000000000000000000000000000000000000000000600052604160045260246000fd5b6115b5826113cc565b810181811067ffffffffffffffff821117156115d4576115d361157d565b5b80604052505050565b60006115e7611300565b90506115f382826115ac565b919050565b600067ffffffffffffffff8211156116135761161261157d565b5b61161c826113cc565b9050602081019050919050565b82818337600083830152505050565b600061164b611646846115f8565b6115dd565b90508281526020810184848401111561166757611666611578565b5b611672848285611629565b509392505050565b600082601f83011261168f5761168e611573565b5b813561169f848260208601611638565b91505092915050565b6000806000806000806000806000806101408b8d0312156116cc576116cb61130a565b5b60008b013567ffffffffffffffff8111156116ea576116e961130f565b5b6116f68d828e0161167a565b9a505060206117078d828e01611335565b99505060408b013567ffffffffffffffff8111156117285761172761130f565b5b6117348d828e0161167a565b98505060608b013567ffffffffffffffff8111156117555761175461130f565b5b6117618d828e0161167a565b97505060808b013567ffffffffffffffff8111156117825761178161130f565b5b61178e8d828e0161167a565b96505060a08b013567ffffffffffffffff8111156117af576117ae61130f565b5b6117bb8d828e0161167a565b95505060c08b013567ffffffffffffffff8111156117dc576117db61130f565b5b6117e88d828e0161167a565b94505060e08b013567ffffffffffffffff8111156118095761180861130f565b5b6118158d828e0161167a565b9350506101008b013567ffffffffffffffff8111156118375761183661130f565b5b6118438d828e0161167a565b9250506101208b013567ffffffffffffffff8111156118655761186461130f565b5b6118718d828e0161167a565b9150509295989b9194979a5092959850565b7f4e487b7100000000000000000000000000000000000000000000000000000000600052602260045260246000fd5b600060028204905060018216806118ca57607f821691505b6020821081036118dd576118dc611883565b5b50919050565b7f546865207265636f726420697320616c72656164792064656c65746564000000600082015250565b6000611919601d83611391565b9150611924826118e3565b602082019050919050565b600060208201905081810360008301526119488161190c565b9050919050565b60008190508160005260206000209050919050565b60008154611971816118b2565b61197b8186611391565b9450600182166000811461199657600181146119ac576119df565b60ff1983168652811515602002860193506119df565b6119b58561194f565b60005b838110156119d7578154818901526001820191506020810190506119b8565b808801955050505b50505092915050565b6000610180820190506119fe600083018f611377565b611a0b602083018e611377565b8181036040830152611a1d818d611964565b9050611a2c606083018c611377565b8181036080830152611a3e818b611964565b905081810360a0830152611a52818a611964565b905081810360c0830152611a668189611964565b905081810360e0830152611a7a8188611964565b9050818103610100830152611a8f8187611964565b9050818103610120830152611aa48186611964565b9050818103610140830152611ab98185611964565b9050818103610160830152611ace8184611964565b90509d9c50505050505050505050505050565b7f4e487b7100000000000000000000000000000000000000000000000000000000600052601160045260246000fd5b6000611b1b82611314565b91507fffffffffffffffffffffffffffffffffffffffffffffffffffffffffffffffff8203611b4d57611b4c611ae1565b5b600182019050919050565b60006020601f8301049050919050565b600082821b905092915050565b600060088302611ba57fffffffffffffffffffffffffffffffffffffffffffffffffffffffffffffffff82611b68565b611baf8683611b68565b95508019841693508086168417925050509392505050565b6000819050919050565b6000611bec611be7611be284611314565b611bc7565b611314565b9050919050565b6000819050919050565b611c0683611bd1565b611c1a611c1282611bf3565b848454611b75565b825550505050565b600090565b611c2f611c22565b611c3a818484611bfd565b505050565b5b81811015611c5e57611c53600082611c27565b600181019050611c40565b5050565b601f821115611ca357611c748161194f565b611c7d84611b58565b81016020851015611c8c578190505b611ca0611c9885611b58565b830182611c3f565b50505b505050565b600082821c905092915050565b6000611cc660001984600802611ca8565b1980831691505092915050565b6000611cdf8383611cb5565b9150826002028217905092915050565b611cf882611386565b67ffffffffffffffff811115611d1157611d1061157d565b5b611d1b82546118b2565b611d26828285611c62565b600060209050601f831160018114611d595760008415611d47578287015190505b611d518582611cd3565b865550611db9565b601f198416611d678661194f565b60005b82811015611d8f57848901518255600182019150602085019450602081019050611d6a565b86831015611dac5784890151611da8601f891682611cb5565b8355505b6001600288020188555050505b505050505050565b600061018082019050611dd7600083018f611377565b611de4602083018e611377565b8181036040830152611df6818d6113dd565b9050611e05606083018c611377565b8181036080830152611e17818b6113dd565b905081810360a0830152611e2b818a6113dd565b905081810360c0830152611e3f81896113dd565b905081810360e0830152611e5381886113dd565b9050818103610100830152611e6881876113dd565b9050818103610120830152611e7d81866113dd565b9050818103610140830152611e9281856113dd565b9050818103610160830152611ea781846113dd565b90509d9c5050505050505050505050505056fea2646970667358221220c75876251f0b0852542c4a7d8071cc326c20b52df79cd61355eade9e75fb9f6064736f6c63430008180033",
  "linkReferences": {},
  "deployedLinkReferences": {}
}